{
	"data": {
		"bytecode": {
			"linkReferences": {},
			"object": "6080604052348015600e575f5ffd5b50335f5f6101000a81548173ffffffffffffffffffffffffffffffffffffffff021916908373ffffffffffffffffffffffffffffffffffffffff160217905550610c6f8061005b5f395ff3fe608060405234801561000f575f5ffd5b506004361061004a575f3560e01c8063142e15421461004e578063818a29941461006a5780638b23d875146100865780638da5cb5b146100b9575b5f5ffd5b61006860048036038101906100639190610667565b6100d7565b005b610084600480360381019061007f91906106ae565b6101a0565b005b6100a0600480360381019061009b9190610667565b6102d8565b6040516100b094939291906107fc565b60405180910390f35b6100c16104f6565b6040516100ce9190610893565b60405180910390f35b5f5f9054906101000a900473ffffffffffffffffffffffffffffffffffffffff1673ffffffffffffffffffffffffffffffffffffffff163373ffffffffffffffffffffffffffffffffffffffff1614610165576040517f08c379a000000000000000000000000000000000000000000000000000000000815260040161015c906108f6565b60405180910390fd5b5f600182604051610176919061094e565b90815260200160405180910390206003015f6101000a81548160ff02191690831515021790555050565b5f5f9054906101000a900473ffffffffffffffffffffffffffffffffffffffff1673ffffffffffffffffffffffffffffffffffffffff163373ffffffffffffffffffffffffffffffffffffffff161461022e576040517f08c379a0000000000000000000000000000000000000000000000000000000008152600401610225906108f6565b60405180910390fd5b604051806080016040528084815260200183815260200182815260200160011515815250600185604051610262919061094e565b90815260200160405180910390205f820151815f0190816102839190610b6a565b5060208201518160010190816102999190610b6a565b5060408201518160020190816102af9190610b6a565b506060820151816003015f6101000a81548160ff02191690831515021790555090505050505050565b60608060605f5f6001866040516102ef919061094e565b90815260200160405180910390206040518060800160405290815f8201805461031790610991565b80601f016020809104026020016040519081016040528092919081815260200182805461034390610991565b801561038e5780601f106103655761010080835404028352916020019161038e565b820191905f5260205f20905b81548152906001019060200180831161037157829003601f168201915b505050505081526020016001820180546103a790610991565b80601f01602080910402602001604051908101604052809291908181526020018280546103d390610991565b801561041e5780601f106103f55761010080835404028352916020019161041e565b820191905f5260205f20905b81548152906001019060200180831161040157829003601f168201915b5050505050815260200160028201805461043790610991565b80601f016020809104026020016040519081016040528092919081815260200182805461046390610991565b80156104ae5780601f10610485576101008083540402835291602001916104ae565b820191905f5260205f20905b81548152906001019060200180831161049157829003601f168201915b50505050508152602001600382015f9054906101000a900460ff1615151515815250509050805f01518160200151826040015183606001519450945094509450509193509193565b5f5f9054906101000a900473ffffffffffffffffffffffffffffffffffffffff1681565b5f604051905090565b5f5ffd5b5f5ffd5b5f5ffd5b5f5ffd5b5f601f19601f8301169050919050565b7f4e487b71000000000000000000000000000000000000000000000000000000005f52604160045260245ffd5b61057982610533565b810181811067ffffffffffffffff8211171561059857610597610543565b5b80604052505050565b5f6105aa61051a565b90506105b68282610570565b919050565b5f67ffffffffffffffff8211156105d5576105d4610543565b5b6105de82610533565b9050602081019050919050565b828183375f83830152505050565b5f61060b610606846105bb565b6105a1565b9050828152602081018484840111156106275761062661052f565b5b6106328482856105eb565b509392505050565b5f82601f83011261064e5761064d61052b565b5b813561065e8482602086016105f9565b91505092915050565b5f6020828403121561067c5761067b610523565b5b5f82013567ffffffffffffffff81111561069957610698610527565b5b6106a58482850161063a565b91505092915050565b5f5f5f5f608085870312156106c6576106c5610523565b5b5f85013567ffffffffffffffff8111156106e3576106e2610527565b5b6106ef8782880161063a565b945050602085013567ffffffffffffffff8111156107105761070f610527565b5b61071c8782880161063a565b935050604085013567ffffffffffffffff81111561073d5761073c610527565b5b6107498782880161063a565b925050606085013567ffffffffffffffff81111561076a57610769610527565b5b6107768782880161063a565b91505092959194509250565b5f81519050919050565b5f82825260208201905092915050565b8281835e5f83830152505050565b5f6107b482610782565b6107be818561078c565b93506107ce81856020860161079c565b6107d781610533565b840191505092915050565b5f8115159050919050565b6107f6816107e2565b82525050565b5f6080820190508181035f83015261081481876107aa565b9050818103602083015261082881866107aa565b9050818103604083015261083c81856107aa565b905061084b60608301846107ed565b95945050505050565b5f73ffffffffffffffffffffffffffffffffffffffff82169050919050565b5f61087d82610854565b9050919050565b61088d81610873565b82525050565b5f6020820190506108a65f830184610884565b92915050565b7f4e6f7420617574686f72697a65640000000000000000000000000000000000005f82015250565b5f6108e0600e8361078c565b91506108eb826108ac565b602082019050919050565b5f6020820190508181035f83015261090d816108d4565b9050919050565b5f81905092915050565b5f61092882610782565b6109328185610914565b935061094281856020860161079c565b80840191505092915050565b5f610959828461091e565b915081905092915050565b7f4e487b71000000000000000000000000000000000000000000000000000000005f52602260045260245ffd5b5f60028204905060018216806109a857607f821691505b6020821081036109bb576109ba610964565b5b50919050565b5f819050815f5260205f209050919050565b5f6020601f8301049050919050565b5f82821b905092915050565b5f60088302610a1d7fffffffffffffffffffffffffffffffffffffffffffffffffffffffffffffffff826109e2565b610a2786836109e2565b95508019841693508086168417925050509392505050565b5f819050919050565b5f819050919050565b5f610a6b610a66610a6184610a3f565b610a48565b610a3f565b9050919050565b5f819050919050565b610a8483610a51565b610a98610a9082610a72565b8484546109ee565b825550505050565b5f5f905090565b610aaf610aa0565b610aba818484610a7b565b505050565b5b81811015610add57610ad25f82610aa7565b600181019050610ac0565b5050565b601f821115610b2257610af3816109c1565b610afc846109d3565b81016020851015610b0b578190505b610b1f610b17856109d3565b830182610abf565b50505b505050565b5f82821c905092915050565b5f610b425f1984600802610b27565b1980831691505092915050565b5f610b5a8383610b33565b9150826002028217905092915050565b610b7382610782565b67ffffffffffffffff811115610b8c57610b8b610543565b5b610b968254610991565b610ba1828285610ae1565b5f60209050601f831160018114610bd2575f8415610bc0578287015190505b610bca8582610b4f565b865550610c31565b601f198416610be0866109c1565b5f5b82811015610c0757848901518255600182019150602085019450602081019050610be2565b86831015610c245784890151610c20601f891682610b33565b8355505b6001600288020188555050505b50505050505056fea2646970667358221220cee5c87161ccd2b9288d702c0d73324a6bdfef7dc48ea05d4664b8363300357164736f6c634300081f0033",
			"opcodes": "PUSH1 0x80 PUSH1 0x40 MSTORE CALLVALUE DUP1 ISZERO PUSH1 0xE JUMPI PUSH0 PUSH0 REVERT JUMPDEST POP CALLER PUSH0 PUSH0 PUSH2 0x100 EXP DUP2 SLOAD DUP2 PUSH20 0xFFFFFFFFFFFFFFFFFFFFFFFFFFFFFFFFFFFFFFFF MUL NOT AND SWAP1 DUP4 PUSH20 0xFFFFFFFFFFFFFFFFFFFFFFFFFFFFFFFFFFFFFFFF AND MUL OR SWAP1 SSTORE POP PUSH2 0xC6F DUP1 PUSH2 0x5B PUSH0 CODECOPY PUSH0 RETURN INVALID PUSH1 0x80 PUSH1 0x40 MSTORE CALLVALUE DUP1 ISZERO PUSH2 0xF JUMPI PUSH0 PUSH0 REVERT JUMPDEST POP PUSH1 0x4 CALLDATASIZE LT PUSH2 0x4A JUMPI PUSH0 CALLDATALOAD PUSH1 0xE0 SHR DUP1 PUSH4 0x142E1542 EQ PUSH2 0x4E JUMPI DUP1 PUSH4 0x818A2994 EQ PUSH2 0x6A JUMPI DUP1 PUSH4 0x8B23D875 EQ PUSH2 0x86 JUMPI DUP1 PUSH4 0x8DA5CB5B EQ PUSH2 0xB9 JUMPI JUMPDEST PUSH0 PUSH0 REVERT JUMPDEST PUSH2 0x68 PUSH1 0x4 DUP1 CALLDATASIZE SUB DUP2 ADD SWAP1 PUSH2 0x63 SWAP2 SWAP1 PUSH2 0x667 JUMP JUMPDEST PUSH2 0xD7 JUMP JUMPDEST STOP JUMPDEST PUSH2 0x84 PUSH1 0x4 DUP1 CALLDATASIZE SUB DUP2 ADD SWAP1 PUSH2 0x7F SWAP2 SWAP1 PUSH2 0x6AE JUMP JUMPDEST PUSH2 0x1A0 JUMP JUMPDEST STOP JUMPDEST PUSH2 0xA0 PUSH1 0x4 DUP1 CALLDATASIZE SUB DUP2 ADD SWAP1 PUSH2 0x9B SWAP2 SWAP1 PUSH2 0x667 JUMP JUMPDEST PUSH2 0x2D8 JUMP JUMPDEST PUSH1 0x40 MLOAD PUSH2 0xB0 SWAP5 SWAP4 SWAP3 SWAP2 SWAP1 PUSH2 0x7FC JUMP JUMPDEST PUSH1 0x40 MLOAD DUP1 SWAP2 SUB SWAP1 RETURN JUMPDEST PUSH2 0xC1 PUSH2 0x4F6 JUMP JUMPDEST PUSH1 0x40 MLOAD PUSH2 0xCE SWAP2 SWAP1 PUSH2 0x893 JUMP JUMPDEST PUSH1 0x40 MLOAD DUP1 SWAP2 SUB SWAP1 RETURN JUMPDEST PUSH0 PUSH0 SWAP1 SLOAD SWAP1 PUSH2 0x100 EXP SWAP1 DIV PUSH20 0xFFFFFFFFFFFFFFFFFFFFFFFFFFFFFFFFFFFFFFFF AND PUSH20 0xFFFFFFFFFFFFFFFFFFFFFFFFFFFFFFFFFFFFFFFF AND CALLER PUSH20 0xFFFFFFFFFFFFFFFFFFFFFFFFFFFFFFFFFFFFFFFF AND EQ PUSH2 0x165 JUMPI PUSH1 0x40 MLOAD PUSH32 0x8C379A000000000000000000000000000000000000000000000000000000000 DUP2 MSTORE PUSH1 0x4 ADD PUSH2 0x15C SWAP1 PUSH2 0x8F6 JUMP JUMPDEST PUSH1 0x40 MLOAD DUP1 SWAP2 SUB SWAP1 REVERT JUMPDEST PUSH0 PUSH1 0x1 DUP3 PUSH1 0x40 MLOAD PUSH2 0x176 SWAP2 SWAP1 PUSH2 0x94E JUMP JUMPDEST SWAP1 DUP2 MSTORE PUSH1 0x20 ADD PUSH1 0x40 MLOAD DUP1 SWAP2 SUB SWAP1 KECCAK256 PUSH1 0x3 ADD PUSH0 PUSH2 0x100 EXP DUP2 SLOAD DUP2 PUSH1 0xFF MUL NOT AND SWAP1 DUP4 ISZERO ISZERO MUL OR SWAP1 SSTORE POP POP JUMP JUMPDEST PUSH0 PUSH0 SWAP1 SLOAD SWAP1 PUSH2 0x100 EXP SWAP1 DIV PUSH20 0xFFFFFFFFFFFFFFFFFFFFFFFFFFFFFFFFFFFFFFFF AND PUSH20 0xFFFFFFFFFFFFFFFFFFFFFFFFFFFFFFFFFFFFFFFF AND CALLER PUSH20 0xFFFFFFFFFFFFFFFFFFFFFFFFFFFFFFFFFFFFFFFF AND EQ PUSH2 0x22E JUMPI PUSH1 0x40 MLOAD PUSH32 0x8C379A000000000000000000000000000000000000000000000000000000000 DUP2 MSTORE PUSH1 0x4 ADD PUSH2 0x225 SWAP1 PUSH2 0x8F6 JUMP JUMPDEST PUSH1 0x40 MLOAD DUP1 SWAP2 SUB SWAP1 REVERT JUMPDEST PUSH1 0x40 MLOAD DUP1 PUSH1 0x80 ADD PUSH1 0x40 MSTORE DUP1 DUP5 DUP2 MSTORE PUSH1 0x20 ADD DUP4 DUP2 MSTORE PUSH1 0x20 ADD DUP3 DUP2 MSTORE PUSH1 0x20 ADD PUSH1 0x1 ISZERO ISZERO DUP2 MSTORE POP PUSH1 0x1 DUP6 PUSH1 0x40 MLOAD PUSH2 0x262 SWAP2 SWAP1 PUSH2 0x94E JUMP JUMPDEST SWAP1 DUP2 MSTORE PUSH1 0x20 ADD PUSH1 0x40 MLOAD DUP1 SWAP2 SUB SWAP1 KECCAK256 PUSH0 DUP3 ADD MLOAD DUP2 PUSH0 ADD SWAP1 DUP2 PUSH2 0x283 SWAP2 SWAP1 PUSH2 0xB6A JUMP JUMPDEST POP PUSH1 0x20 DUP3 ADD MLOAD DUP2 PUSH1 0x1 ADD SWAP1 DUP2 PUSH2 0x299 SWAP2 SWAP1 PUSH2 0xB6A JUMP JUMPDEST POP PUSH1 0x40 DUP3 ADD MLOAD DUP2 PUSH1 0x2 ADD SWAP1 DUP2 PUSH2 0x2AF SWAP2 SWAP1 PUSH2 0xB6A JUMP JUMPDEST POP PUSH1 0x60 DUP3 ADD MLOAD DUP2 PUSH1 0x3 ADD PUSH0 PUSH2 0x100 EXP DUP2 SLOAD DUP2 PUSH1 0xFF MUL NOT AND SWAP1 DUP4 ISZERO ISZERO MUL OR SWAP1 SSTORE POP SWAP1 POP POP POP POP POP POP JUMP JUMPDEST PUSH1 0x60 DUP1 PUSH1 0x60 PUSH0 PUSH0 PUSH1 0x1 DUP7 PUSH1 0x40 MLOAD PUSH2 0x2EF SWAP2 SWAP1 PUSH2 0x94E JUMP JUMPDEST SWAP1 DUP2 MSTORE PUSH1 0x20 ADD PUSH1 0x40 MLOAD DUP1 SWAP2 SUB SWAP1 KECCAK256 PUSH1 0x40 MLOAD DUP1 PUSH1 0x80 ADD PUSH1 0x40 MSTORE SWAP1 DUP2 PUSH0 DUP3 ADD DUP1 SLOAD PUSH2 0x317 SWAP1 PUSH2 0x991 JUMP JUMPDEST DUP1 PUSH1 0x1F ADD PUSH1 0x20 DUP1 SWAP2 DIV MUL PUSH1 0x20 ADD PUSH1 0x40 MLOAD SWAP1 DUP2 ADD PUSH1 0x40 MSTORE DUP1 SWAP3 SWAP2 SWAP1 DUP2 DUP2 MSTORE PUSH1 0x20 ADD DUP3 DUP1 SLOAD PUSH2 0x343 SWAP1 PUSH2 0x991 JUMP JUMPDEST DUP1 ISZERO PUSH2 0x38E JUMPI DUP1 PUSH1 0x1F LT PUSH2 0x365 JUMPI PUSH2 0x100 DUP1 DUP4 SLOAD DIV MUL DUP4 MSTORE SWAP2 PUSH1 0x20 ADD SWAP2 PUSH2 0x38E JUMP JUMPDEST DUP3 ADD SWAP2 SWAP1 PUSH0 MSTORE PUSH1 0x20 PUSH0 KECCAK256 SWAP1 JUMPDEST DUP2 SLOAD DUP2 MSTORE SWAP1 PUSH1 0x1 ADD SWAP1 PUSH1 0x20 ADD DUP1 DUP4 GT PUSH2 0x371 JUMPI DUP3 SWAP1 SUB PUSH1 0x1F AND DUP3 ADD SWAP2 JUMPDEST POP POP POP POP POP DUP2 MSTORE PUSH1 0x20 ADD PUSH1 0x1 DUP3 ADD DUP1 SLOAD PUSH2 0x3A7 SWAP1 PUSH2 0x991 JUMP JUMPDEST DUP1 PUSH1 0x1F ADD PUSH1 0x20 DUP1 SWAP2 DIV MUL PUSH1 0x20 ADD PUSH1 0x40 MLOAD SWAP1 DUP2 ADD PUSH1 0x40 MSTORE DUP1 SWAP3 SWAP2 SWAP1 DUP2 DUP2 MSTORE PUSH1 0x20 ADD DUP3 DUP1 SLOAD PUSH2 0x3D3 SWAP1 PUSH2 0x991 JUMP JUMPDEST DUP1 ISZERO PUSH2 0x41E JUMPI DUP1 PUSH1 0x1F LT PUSH2 0x3F5 JUMPI PUSH2 0x100 DUP1 DUP4 SLOAD DIV MUL DUP4 MSTORE SWAP2 PUSH1 0x20 ADD SWAP2 PUSH2 0x41E JUMP JUMPDEST DUP3 ADD SWAP2 SWAP1 PUSH0 MSTORE PUSH1 0x20 PUSH0 KECCAK256 SWAP1 JUMPDEST DUP2 SLOAD DUP2 MSTORE SWAP1 PUSH1 0x1 ADD SWAP1 PUSH1 0x20 ADD DUP1 DUP4 GT PUSH2 0x401 JUMPI DUP3 SWAP1 SUB PUSH1 0x1F AND DUP3 ADD SWAP2 JUMPDEST POP POP POP POP POP DUP2 MSTORE PUSH1 0x20 ADD PUSH1 0x2 DUP3 ADD DUP1 SLOAD PUSH2 0x437 SWAP1 PUSH2 0x991 JUMP JUMPDEST DUP1 PUSH1 0x1F ADD PUSH1 0x20 DUP1 SWAP2 DIV MUL PUSH1 0x20 ADD PUSH1 0x40 MLOAD SWAP1 DUP2 ADD PUSH1 0x40 MSTORE DUP1 SWAP3 SWAP2 SWAP1 DUP2 DUP2 MSTORE PUSH1 0x20 ADD DUP3 DUP1 SLOAD PUSH2 0x463 SWAP1 PUSH2 0x991 JUMP JUMPDEST DUP1 ISZERO PUSH2 0x4AE JUMPI DUP1 PUSH1 0x1F LT PUSH2 0x485 JUMPI PUSH2 0x100 DUP1 DUP4 SLOAD DIV MUL DUP4 MSTORE SWAP2 PUSH1 0x20 ADD SWAP2 PUSH2 0x4AE JUMP JUMPDEST DUP3 ADD SWAP2 SWAP1 PUSH0 MSTORE PUSH1 0x20 PUSH0 KECCAK256 SWAP1 JUMPDEST DUP2 SLOAD DUP2 MSTORE SWAP1 PUSH1 0x1 ADD SWAP1 PUSH1 0x20 ADD DUP1 DUP4 GT PUSH2 0x491 JUMPI DUP3 SWAP1 SUB PUSH1 0x1F AND DUP3 ADD SWAP2 JUMPDEST POP POP POP POP POP DUP2 MSTORE PUSH1 0x20 ADD PUSH1 0x3 DUP3 ADD PUSH0 SWAP1 SLOAD SWAP1 PUSH2 0x100 EXP SWAP1 DIV PUSH1 0xFF AND ISZERO ISZERO ISZERO ISZERO DUP2 MSTORE POP POP SWAP1 POP DUP1 PUSH0 ADD MLOAD DUP2 PUSH1 0x20 ADD MLOAD DUP3 PUSH1 0x40 ADD MLOAD DUP4 PUSH1 0x60 ADD MLOAD SWAP5 POP SWAP5 POP SWAP5 POP SWAP5 POP POP SWAP2 SWAP4 POP SWAP2 SWAP4 JUMP JUMPDEST PUSH0 PUSH0 SWAP1 SLOAD SWAP1 PUSH2 0x100 EXP SWAP1 DIV PUSH20 0xFFFFFFFFFFFFFFFFFFFFFFFFFFFFFFFFFFFFFFFF AND DUP2 JUMP JUMPDEST PUSH0 PUSH1 0x40 MLOAD SWAP1 POP SWAP1 JUMP JUMPDEST PUSH0 PUSH0 REVERT JUMPDEST PUSH0 PUSH0 REVERT JUMPDEST PUSH0 PUSH0 REVERT JUMPDEST PUSH0 PUSH0 REVERT JUMPDEST PUSH0 PUSH1 0x1F NOT PUSH1 0x1F DUP4 ADD AND SWAP1 POP SWAP2 SWAP1 POP JUMP JUMPDEST PUSH32 0x4E487B7100000000000000000000000000000000000000000000000000000000 PUSH0 MSTORE PUSH1 0x41 PUSH1 0x4 MSTORE PUSH1 0x24 PUSH0 REVERT JUMPDEST PUSH2 0x579 DUP3 PUSH2 0x533 JUMP JUMPDEST DUP2 ADD DUP2 DUP2 LT PUSH8 0xFFFFFFFFFFFFFFFF DUP3 GT OR ISZERO PUSH2 0x598 JUMPI PUSH2 0x597 PUSH2 0x543 JUMP JUMPDEST JUMPDEST DUP1 PUSH1 0x40 MSTORE POP POP POP JUMP JUMPDEST PUSH0 PUSH2 0x5AA PUSH2 0x51A JUMP JUMPDEST SWAP1 POP PUSH2 0x5B6 DUP3 DUP3 PUSH2 0x570 JUMP JUMPDEST SWAP2 SWAP1 POP JUMP JUMPDEST PUSH0 PUSH8 0xFFFFFFFFFFFFFFFF DUP3 GT ISZERO PUSH2 0x5D5 JUMPI PUSH2 0x5D4 PUSH2 0x543 JUMP JUMPDEST JUMPDEST PUSH2 0x5DE DUP3 PUSH2 0x533 JUMP JUMPDEST SWAP1 POP PUSH1 0x20 DUP2 ADD SWAP1 POP SWAP2 SWAP1 POP JUMP JUMPDEST DUP3 DUP2 DUP4 CALLDATACOPY PUSH0 DUP4 DUP4 ADD MSTORE POP POP POP JUMP JUMPDEST PUSH0 PUSH2 0x60B PUSH2 0x606 DUP5 PUSH2 0x5BB JUMP JUMPDEST PUSH2 0x5A1 JUMP JUMPDEST SWAP1 POP DUP3 DUP2 MSTORE PUSH1 0x20 DUP2 ADD DUP5 DUP5 DUP5 ADD GT ISZERO PUSH2 0x627 JUMPI PUSH2 0x626 PUSH2 0x52F JUMP JUMPDEST JUMPDEST PUSH2 0x632 DUP5 DUP3 DUP6 PUSH2 0x5EB JUMP JUMPDEST POP SWAP4 SWAP3 POP POP POP JUMP JUMPDEST PUSH0 DUP3 PUSH1 0x1F DUP4 ADD SLT PUSH2 0x64E JUMPI PUSH2 0x64D PUSH2 0x52B JUMP JUMPDEST JUMPDEST DUP2 CALLDATALOAD PUSH2 0x65E DUP5 DUP3 PUSH1 0x20 DUP7 ADD PUSH2 0x5F9 JUMP JUMPDEST SWAP2 POP POP SWAP3 SWAP2 POP POP JUMP JUMPDEST PUSH0 PUSH1 0x20 DUP3 DUP5 SUB SLT ISZERO PUSH2 0x67C JUMPI PUSH2 0x67B PUSH2 0x523 JUMP JUMPDEST JUMPDEST PUSH0 DUP3 ADD CALLDATALOAD PUSH8 0xFFFFFFFFFFFFFFFF DUP2 GT ISZERO PUSH2 0x699 JUMPI PUSH2 0x698 PUSH2 0x527 JUMP JUMPDEST JUMPDEST PUSH2 0x6A5 DUP5 DUP3 DUP6 ADD PUSH2 0x63A JUMP JUMPDEST SWAP2 POP POP SWAP3 SWAP2 POP POP JUMP JUMPDEST PUSH0 PUSH0 PUSH0 PUSH0 PUSH1 0x80 DUP6 DUP8 SUB SLT ISZERO PUSH2 0x6C6 JUMPI PUSH2 0x6C5 PUSH2 0x523 JUMP JUMPDEST JUMPDEST PUSH0 DUP6 ADD CALLDATALOAD PUSH8 0xFFFFFFFFFFFFFFFF DUP2 GT ISZERO PUSH2 0x6E3 JUMPI PUSH2 0x6E2 PUSH2 0x527 JUMP JUMPDEST JUMPDEST PUSH2 0x6EF DUP8 DUP3 DUP9 ADD PUSH2 0x63A JUMP JUMPDEST SWAP5 POP POP PUSH1 0x20 DUP6 ADD CALLDATALOAD PUSH8 0xFFFFFFFFFFFFFFFF DUP2 GT ISZERO PUSH2 0x710 JUMPI PUSH2 0x70F PUSH2 0x527 JUMP JUMPDEST JUMPDEST PUSH2 0x71C DUP8 DUP3 DUP9 ADD PUSH2 0x63A JUMP JUMPDEST SWAP4 POP POP PUSH1 0x40 DUP6 ADD CALLDATALOAD PUSH8 0xFFFFFFFFFFFFFFFF DUP2 GT ISZERO PUSH2 0x73D JUMPI PUSH2 0x73C PUSH2 0x527 JUMP JUMPDEST JUMPDEST PUSH2 0x749 DUP8 DUP3 DUP9 ADD PUSH2 0x63A JUMP JUMPDEST SWAP3 POP POP PUSH1 0x60 DUP6 ADD CALLDATALOAD PUSH8 0xFFFFFFFFFFFFFFFF DUP2 GT ISZERO PUSH2 0x76A JUMPI PUSH2 0x769 PUSH2 0x527 JUMP JUMPDEST JUMPDEST PUSH2 0x776 DUP8 DUP3 DUP9 ADD PUSH2 0x63A JUMP JUMPDEST SWAP2 POP POP SWAP3 SWAP6 SWAP2 SWAP5 POP SWAP3 POP JUMP JUMPDEST PUSH0 DUP2 MLOAD SWAP1 POP SWAP2 SWAP1 POP JUMP JUMPDEST PUSH0 DUP3 DUP3 MSTORE PUSH1 0x20 DUP3 ADD SWAP1 POP SWAP3 SWAP2 POP POP JUMP JUMPDEST DUP3 DUP2 DUP4 MCOPY PUSH0 DUP4 DUP4 ADD MSTORE POP POP POP JUMP JUMPDEST PUSH0 PUSH2 0x7B4 DUP3 PUSH2 0x782 JUMP JUMPDEST PUSH2 0x7BE DUP2 DUP6 PUSH2 0x78C JUMP JUMPDEST SWAP4 POP PUSH2 0x7CE DUP2 DUP6 PUSH1 0x20 DUP7 ADD PUSH2 0x79C JUMP JUMPDEST PUSH2 0x7D7 DUP2 PUSH2 0x533 JUMP JUMPDEST DUP5 ADD SWAP2 POP POP SWAP3 SWAP2 POP POP JUMP JUMPDEST PUSH0 DUP2 ISZERO ISZERO SWAP1 POP SWAP2 SWAP1 POP JUMP JUMPDEST PUSH2 0x7F6 DUP2 PUSH2 0x7E2 JUMP JUMPDEST DUP3 MSTORE POP POP JUMP JUMPDEST PUSH0 PUSH1 0x80 DUP3 ADD SWAP1 POP DUP2 DUP2 SUB PUSH0 DUP4 ADD MSTORE PUSH2 0x814 DUP2 DUP8 PUSH2 0x7AA JUMP JUMPDEST SWAP1 POP DUP2 DUP2 SUB PUSH1 0x20 DUP4 ADD MSTORE PUSH2 0x828 DUP2 DUP7 PUSH2 0x7AA JUMP JUMPDEST SWAP1 POP DUP2 DUP2 SUB PUSH1 0x40 DUP4 ADD MSTORE PUSH2 0x83C DUP2 DUP6 PUSH2 0x7AA JUMP JUMPDEST SWAP1 POP PUSH2 0x84B PUSH1 0x60 DUP4 ADD DUP5 PUSH2 0x7ED JUMP JUMPDEST SWAP6 SWAP5 POP POP POP POP POP JUMP JUMPDEST PUSH0 PUSH20 0xFFFFFFFFFFFFFFFFFFFFFFFFFFFFFFFFFFFFFFFF DUP3 AND SWAP1 POP SWAP2 SWAP1 POP JUMP JUMPDEST PUSH0 PUSH2 0x87D DUP3 PUSH2 0x854 JUMP JUMPDEST SWAP1 POP SWAP2 SWAP1 POP JUMP JUMPDEST PUSH2 0x88D DUP2 PUSH2 0x873 JUMP JUMPDEST DUP3 MSTORE POP POP JUMP JUMPDEST PUSH0 PUSH1 0x20 DUP3 ADD SWAP1 POP PUSH2 0x8A6 PUSH0 DUP4 ADD DUP5 PUSH2 0x884 JUMP JUMPDEST SWAP3 SWAP2 POP POP JUMP JUMPDEST PUSH32 0x4E6F7420617574686F72697A6564000000000000000000000000000000000000 PUSH0 DUP3 ADD MSTORE POP JUMP JUMPDEST PUSH0 PUSH2 0x8E0 PUSH1 0xE DUP4 PUSH2 0x78C JUMP JUMPDEST SWAP2 POP PUSH2 0x8EB DUP3 PUSH2 0x8AC JUMP JUMPDEST PUSH1 0x20 DUP3 ADD SWAP1 POP SWAP2 SWAP1 POP JUMP JUMPDEST PUSH0 PUSH1 0x20 DUP3 ADD SWAP1 POP DUP2 DUP2 SUB PUSH0 DUP4 ADD MSTORE PUSH2 0x90D DUP2 PUSH2 0x8D4 JUMP JUMPDEST SWAP1 POP SWAP2 SWAP1 POP JUMP JUMPDEST PUSH0 DUP2 SWAP1 POP SWAP3 SWAP2 POP POP JUMP JUMPDEST PUSH0 PUSH2 0x928 DUP3 PUSH2 0x782 JUMP JUMPDEST PUSH2 0x932 DUP2 DUP6 PUSH2 0x914 JUMP JUMPDEST SWAP4 POP PUSH2 0x942 DUP2 DUP6 PUSH1 0x20 DUP7 ADD PUSH2 0x79C JUMP JUMPDEST DUP1 DUP5 ADD SWAP2 POP POP SWAP3 SWAP2 POP POP JUMP JUMPDEST PUSH0 PUSH2 0x959 DUP3 DUP5 PUSH2 0x91E JUMP JUMPDEST SWAP2 POP DUP2 SWAP1 POP SWAP3 SWAP2 POP POP JUMP JUMPDEST PUSH32 0x4E487B7100000000000000000000000000000000000000000000000000000000 PUSH0 MSTORE PUSH1 0x22 PUSH1 0x4 MSTORE PUSH1 0x24 PUSH0 REVERT JUMPDEST PUSH0 PUSH1 0x2 DUP3 DIV SWAP1 POP PUSH1 0x1 DUP3 AND DUP1 PUSH2 0x9A8 JUMPI PUSH1 0x7F DUP3 AND SWAP2 POP JUMPDEST PUSH1 0x20 DUP3 LT DUP2 SUB PUSH2 0x9BB JUMPI PUSH2 0x9BA PUSH2 0x964 JUMP JUMPDEST JUMPDEST POP SWAP2 SWAP1 POP JUMP JUMPDEST PUSH0 DUP2 SWAP1 POP DUP2 PUSH0 MSTORE PUSH1 0x20 PUSH0 KECCAK256 SWAP1 POP SWAP2 SWAP1 POP JUMP JUMPDEST PUSH0 PUSH1 0x20 PUSH1 0x1F DUP4 ADD DIV SWAP1 POP SWAP2 SWAP1 POP JUMP JUMPDEST PUSH0 DUP3 DUP3 SHL SWAP1 POP SWAP3 SWAP2 POP POP JUMP JUMPDEST PUSH0 PUSH1 0x8 DUP4 MUL PUSH2 0xA1D PUSH32 0xFFFFFFFFFFFFFFFFFFFFFFFFFFFFFFFFFFFFFFFFFFFFFFFFFFFFFFFFFFFFFFFF DUP3 PUSH2 0x9E2 JUMP JUMPDEST PUSH2 0xA27 DUP7 DUP4 PUSH2 0x9E2 JUMP JUMPDEST SWAP6 POP DUP1 NOT DUP5 AND SWAP4 POP DUP1 DUP7 AND DUP5 OR SWAP3 POP POP POP SWAP4 SWAP3 POP POP POP JUMP JUMPDEST PUSH0 DUP2 SWAP1 POP SWAP2 SWAP1 POP JUMP JUMPDEST PUSH0 DUP2 SWAP1 POP SWAP2 SWAP1 POP JUMP JUMPDEST PUSH0 PUSH2 0xA6B PUSH2 0xA66 PUSH2 0xA61 DUP5 PUSH2 0xA3F JUMP JUMPDEST PUSH2 0xA48 JUMP JUMPDEST PUSH2 0xA3F JUMP JUMPDEST SWAP1 POP SWAP2 SWAP1 POP JUMP JUMPDEST PUSH0 DUP2 SWAP1 POP SWAP2 SWAP1 POP JUMP JUMPDEST PUSH2 0xA84 DUP4 PUSH2 0xA51 JUMP JUMPDEST PUSH2 0xA98 PUSH2 0xA90 DUP3 PUSH2 0xA72 JUMP JUMPDEST DUP5 DUP5 SLOAD PUSH2 0x9EE JUMP JUMPDEST DUP3 SSTORE POP POP POP POP JUMP JUMPDEST PUSH0 PUSH0 SWAP1 POP SWAP1 JUMP JUMPDEST PUSH2 0xAAF PUSH2 0xAA0 JUMP JUMPDEST PUSH2 0xABA DUP2 DUP5 DUP5 PUSH2 0xA7B JUMP JUMPDEST POP POP POP JUMP JUMPDEST JUMPDEST DUP2 DUP2 LT ISZERO PUSH2 0xADD JUMPI PUSH2 0xAD2 PUSH0 DUP3 PUSH2 0xAA7 JUMP JUMPDEST PUSH1 0x1 DUP2 ADD SWAP1 POP PUSH2 0xAC0 JUMP JUMPDEST POP POP JUMP JUMPDEST PUSH1 0x1F DUP3 GT ISZERO PUSH2 0xB22 JUMPI PUSH2 0xAF3 DUP2 PUSH2 0x9C1 JUMP JUMPDEST PUSH2 0xAFC DUP5 PUSH2 0x9D3 JUMP JUMPDEST DUP2 ADD PUSH1 0x20 DUP6 LT ISZERO PUSH2 0xB0B JUMPI DUP2 SWAP1 POP JUMPDEST PUSH2 0xB1F PUSH2 0xB17 DUP6 PUSH2 0x9D3 JUMP JUMPDEST DUP4 ADD DUP3 PUSH2 0xABF JUMP JUMPDEST POP POP JUMPDEST POP POP POP JUMP JUMPDEST PUSH0 DUP3 DUP3 SHR SWAP1 POP SWAP3 SWAP2 POP POP JUMP JUMPDEST PUSH0 PUSH2 0xB42 PUSH0 NOT DUP5 PUSH1 0x8 MUL PUSH2 0xB27 JUMP JUMPDEST NOT DUP1 DUP4 AND SWAP2 POP POP SWAP3 SWAP2 POP POP JUMP JUMPDEST PUSH0 PUSH2 0xB5A DUP4 DUP4 PUSH2 0xB33 JUMP JUMPDEST SWAP2 POP DUP3 PUSH1 0x2 MUL DUP3 OR SWAP1 POP SWAP3 SWAP2 POP POP JUMP JUMPDEST PUSH2 0xB73 DUP3 PUSH2 0x782 JUMP JUMPDEST PUSH8 0xFFFFFFFFFFFFFFFF DUP2 GT ISZERO PUSH2 0xB8C JUMPI PUSH2 0xB8B PUSH2 0x543 JUMP JUMPDEST JUMPDEST PUSH2 0xB96 DUP3 SLOAD PUSH2 0x991 JUMP JUMPDEST PUSH2 0xBA1 DUP3 DUP3 DUP6 PUSH2 0xAE1 JUMP JUMPDEST PUSH0 PUSH1 0x20 SWAP1 POP PUSH1 0x1F DUP4 GT PUSH1 0x1 DUP2 EQ PUSH2 0xBD2 JUMPI PUSH0 DUP5 ISZERO PUSH2 0xBC0 JUMPI DUP3 DUP8 ADD MLOAD SWAP1 POP JUMPDEST PUSH2 0xBCA DUP6 DUP3 PUSH2 0xB4F JUMP JUMPDEST DUP7 SSTORE POP PUSH2 0xC31 JUMP JUMPDEST PUSH1 0x1F NOT DUP5 AND PUSH2 0xBE0 DUP7 PUSH2 0x9C1 JUMP JUMPDEST PUSH0 JUMPDEST DUP3 DUP2 LT ISZERO PUSH2 0xC07 JUMPI DUP5 DUP10 ADD MLOAD DUP3 SSTORE PUSH1 0x1 DUP3 ADD SWAP2 POP PUSH1 0x20 DUP6 ADD SWAP5 POP PUSH1 0x20 DUP2 ADD SWAP1 POP PUSH2 0xBE2 JUMP JUMPDEST DUP7 DUP4 LT ISZERO PUSH2 0xC24 JUMPI DUP5 DUP10 ADD MLOAD PUSH2 0xC20 PUSH1 0x1F DUP10 AND DUP3 PUSH2 0xB33 JUMP JUMPDEST DUP4 SSTORE POP JUMPDEST PUSH1 0x1 PUSH1 0x2 DUP9 MUL ADD DUP9 SSTORE POP POP POP JUMPDEST POP POP POP POP POP POP JUMP INVALID LOG2 PUSH5 0x6970667358 0x22 SLT KECCAK256 0xCE JUMPF 0xC871 PUSH2 0xCCD2 0xB9 0x28 DUP14 PUSH17 0x2C0D73324A6BDFEF7DC48EA05D4664B836 CALLER STOP CALLDATALOAD PUSH18 0x64736F6C634300081F003300000000000000 "
		},
		"gasEstimates": {
			"creation": {
				"codeDepositCost": "636600",
				"executionCost": "24932",
				"totalCost": "661532"
			},
			"external": {
				"issueCertificate(string,string,string,string)": "infinite",
				"owner()": "2551",
				"revokeCertificate(string)": "infinite",
				"verifyCertificate(string)": "infinite"
			}
		},
		"methodIdentifiers": {
			"issueCertificate(string,string,string,string)": "818a2994",
			"owner()": "8da5cb5b",
			"revokeCertificate(string)": "142e1542",
			"verifyCertificate(string)": "8b23d875"
		}
	},
	"abi": [
		{
			"inputs": [],
			"stateMutability": "nonpayable",
			"type": "constructor"
		},
		{
			"inputs": [
				{
					"internalType": "string",
					"name": "_id",
					"type": "string"
				},
				{
					"internalType": "string",
					"name": "_name",
					"type": "string"
				},
				{
					"internalType": "string",
					"name": "_course",
					"type": "string"
				},
				{
					"internalType": "string",
					"name": "_ipfs",
					"type": "string"
				}
			],
			"name": "issueCertificate",
			"outputs": [],
			"stateMutability": "nonpayable",
			"type": "function"
		},
		{
			"inputs": [],
			"name": "owner",
			"outputs": [
				{
					"internalType": "address",
					"name": "",
					"type": "address"
				}
			],
			"stateMutability": "view",
			"type": "function"
		},
		{
			"inputs": [
				{
					"internalType": "string",
					"name": "_id",
					"type": "string"
				}
			],
			"name": "revokeCertificate",
			"outputs": [],
			"stateMutability": "nonpayable",
			"type": "function"
		},
		{
			"inputs": [
				{
					"internalType": "string",
					"name": "_id",
					"type": "string"
				}
			],
			"name": "verifyCertificate",
			"outputs": [
				{
					"internalType": "string",
					"name": "",
					"type": "string"
				},
				{
					"internalType": "string",
					"name": "",
					"type": "string"
				},
				{
					"internalType": "string",
					"name": "",
					"type": "string"
				},
				{
					"internalType": "bool",
					"name": "",
					"type": "bool"
				}
			],
			"stateMutability": "view",
			"type": "function"
		}
	]
}